{
  "address": "0x8F8044E980bfA4eC31258e8e02bD7bC7E2193736",
  "abi": [
    {
      "anonymous": false,
      "inputs": [
        {
          "indexed": false,
          "internalType": "address",
          "name": "user",
          "type": "address"
        },
        {
          "indexed": false,
          "internalType": "bytes",
          "name": "amount",
          "type": "bytes"
        }
      ],
      "name": "paymentSent",
      "type": "event"
    },
    {
      "inputs": [
        {
          "internalType": "address",
          "name": "user",
          "type": "address"
        },
        {
          "internalType": "bytes",
          "name": "amount",
          "type": "bytes"
        }
      ],
      "name": "addPayment",
      "outputs": [],
      "stateMutability": "nonpayable",
      "type": "function"
    }
  ],
  "transactionHash": "0xb1042e3ef2ce3906070d216aa030e06b9b80ac3cff06feb832d0fb5285d3afb7",
  "args": [],
  "numDeployments": 1,
  "solcInputHash": "201a345a9a7b8c3fe38943d1ed826915",
  "bytecode": "0x608060405234801561001057600080fd5b5061018c806100206000396000f3fe608060405234801561001057600080fd5b506004361061002b5760003560e01c80630114ce4d14610030575b600080fd5b61004361003e366004610085565b610045565b005b7faf6b722c0d53203fc0f461442acecfb52f5a15373eef7cdca2c30c3b3bdfc3a783838360405161007893929190610116565b60405180910390a1505050565b60008060006040848603121561009a57600080fd5b83356001600160a01b03811681146100b157600080fd5b9250602084013567ffffffffffffffff808211156100ce57600080fd5b818601915086601f8301126100e257600080fd5b8135818111156100f157600080fd5b87602082850101111561010357600080fd5b6020830194508093505050509250925092565b6001600160a01b03841681526040602082018190528101829052818360608301376000818301606090810191909152601f909201601f191601019291505056fea264697066735822122023af1f6955fb58a9e34fc66fc095b17d3c6a8a708c28e5cc43d06dc0f032680464736f6c63430008140033",
  "devdoc": {
    "kind": "dev",
    "methods": {},
    "version": 1
  },
  "userdoc": {
    "kind": "user",
    "methods": {},
    "version": 1
  },
  "storageLayout": {
    "storage": [],
    "types": null
  }
}